:020000040800F2
:10000000D007002055020008391B0008351B0008E6
:10001000371B000897060008791F00080000000041
:100020000000000000000000000000003D1B000870
:100030002D070008000000003B1B00083F1B0008C4
:100040006F0200086F0200086F0200086F020008CC
:100050006F0200086F0200086F0200086F020008BC
:100060006F0200086F0200086F0200086F020008AC
:100070006F0200086F0200086F0200086F0200089C
:100080006F0200086F0200086F0200086F0200088C
:100090006F0200086F0200086F0200086F0200087C
:1000A0006F0200086F0200086F0200086F0200086C
:1000B0006F0200086F0200086F0200086F0200085C
:1000C0006F0200086F0200086F0200086F0200084C
:1000D0006F0200086D1F00086F0200086F02000821
:1000E0006F0200086F0200086F0200086F0200082C
:1000F0006F0200086F0200086F0200086F0200081C
:100100006F0200086F0200086F0200086F0200080B
:100110006F0200086F020008F11B00086F02000860
:100120006F0200086F020008990600086F020008BD
:100130006F0200086F0200086F0200086F020008DB
:100140006F0200086F0200086F0200086F020008CB
:100150006F0200086F020008A50600086F02000881
:100160006F0200086F0200086F0200086F020008AB
:100170006F0200086F0200086F0200080000000014
:100180006F0200086F0200086F0200086F0200088B
:100190006F0200086F0200086F0200086F0200087B
:1001A0006F0200086F0200086F02000800F002F8FA
:1001B00000F041F80AA090E8000C82448344AAF1C0
:1001C0000107DA4501D100F036F8AFF2090EBAE8BE
:1001D0000F0013F0010F18BFFB1A43F0010318477B
:1001E000041F0000241F0000103A24BF78C878C103
:1001F000FAD8520724BF30C830C144BF04680C602D
:10020000704700000023002400250026103A28BF74
:1002100078C1FBD8520728BF30C148BF0B60704778
:10022000752900F0C580002070471FB501F044FF1C
:100230001FBD10B510BD00F0F4F91146FFF7F5FF32
:1002400001F0ACFE00F012FA03B4FFF7F2FF03BCBA
:1002500000F01AFA0948804709480047FEE7FEE720
:10026000FEE7FEE7FEE7FEE7FEE7FEE7FEE7FEE766
:1002700004480549054A064B70470000E11B000889
:10028000AD010008D0010020D0070020D0030020DD
:10029000D003002053EA020C00F069802DE9F04BF6
:1002A0004FF00006002B1FBFB3FA83F503FA05F4E5
:1002B00024FA05F65E4012BF1643B2FA82F502FA3E
:1002C00005F4C5F120051EBF22FA05FC44EA0C0422
:1002D000203556EA044C4FEA144418BF641C4FF012
:1002E00000084FF00009904271EB030C39D300294C
:1002F00019BFB1FA81F701FA07F6B0FA80F700FAF0
:1003000007F6C7F120071EBF20FA07FC46EA0C06D5
:100310002037B6FBF4FCA7EB0507103F07F01F0BD7
:10032000CBF120060CFA0BFB2CFA06F644BFB346C1
:100330000026202FA4BF5E464FF0000B5BEA060CA0
:1003400008BF4FF0010B19EB0B09ABFB027C48EB2C
:100350000608C01B06FB02CC0BFB03CC71EB0C01A7
:10036000C1E70B46024641464846BDE8F08B13B54F
:100370004FF000004FF00001AFF30080BDE81C40DB
:10038000704700000FB41CB5084B06AA7B446946B1
:100390000090059800F02DF904460020694600F011
:1003A0003BF920461CBC5DF814FB000089020000EC
:1003B0002DE9F0410646002410687529314616A53E
:1003C00010D0AFF30080002802DA404213A507E006
:1003D00031688A0701D512A502E0490704D511A5A5
:1003E000012401E0AFF3008000210A2206F1240776
:1003F00009E0B0FBF2FCB0FBF2F302FB1C00303072
:1004000078541846491C0028F3D123462A46304622
:10041000BDE8F04100F08EB8000000002D000000A3
:100420002B000000200000002DE9F0410F4605469A
:10043000002028622846E968884770B3252805D03F
:10044000D5E901219047286A401CF2E7E96828466F
:10045000002688476C2804460AD0682C08D04C2C0B
:1004600035D06A2C31D0742C31D07A2C2FD016E0B4
:10047000E968064628468847B042044608D16C2EF3
:1004800023D04FF480662846E9688847044606E092
:100490006C2E03D04FF4807601E01EE04026E4B1DC
:1004A000A4F14100192802D8203446F400663A46E7
:1004B000214628462E60FFF7B3FE60B1012808D020
:1004C000FF1D27F007070837B4E78026DBE7002683
:1004D000D9E73F1DAEE72046B2E7286ABDE8F081C4
:1004E0004FF0000200B5134694469646203922BFCD
:1004F000A0E80C50A0E80C50B1F12001BFF4F7AF18
:10050000090728BFA0E80C5048BF0CC05DF804EBF9
:10051000890028BF40F8042B08BF704748BF20F867
:10052000022B11F0804F18BF00F8012B7047704765
:10053000704770472DE9F0470D46994692460446AC
:1005400000F124080168880604D5E06921F0100153
:10055000216000E00120A84201DD471B00E00027E8
:10056000A1697A1902EB0900081AA0612078C00677
:1005700002D42046AFF30080002608E0D4E9012130
:100580001AF806009047206A401C761C20624E45EF
:10059000F4DB2078C0060AD52046AFF3008006E0E1
:1005A000D4E9012130209047206A401C2062381E87
:1005B000A7F10107F4DC07E0D4E9012118F80500F0
:1005C0009047206A401C2062281EA5F10105F3DC3B
:1005D0002046AFF300802078000602D50220BDE857
:1005E000F0870120FBE7000001694A1C02610878DE
:1005F000704700B58FB0CDE9013100210591054963
:100600007944CDE9031011466846FFF70DFF0FB09E
:1006100000BD0000E5FFFFFF0A6802F8010B0A6059
:100620007047754600F02CF8AE4605006946534603
:1006300020F00700854618B020B5FFF719FEBDE889
:1006400020404FF000064FF000074FF000084FF039
:10065000000B21F00701AC46ACE8C009ACE8C009CA
:10066000ACE8C009ACE8C0098D46704710B5044637
:10067000AFF300802046BDE81040FFF7E5BD000065
:10068000004870476C01002001491820ABBEFEE70E
:10069000260002007047FEE7014800F0A5B8000000
:1006A000AC000020014800F09FB800000C010020C1
:1006B00001681823CAB2103AB2FBF3F2054B6FF38C
:1006C0000901032A9B5CC36500D9091D81650846A1
:1006D00070470000C220000810B5014600208B6959
:1006E0008A6A4FF0C07453B1B3F5005F15D072B190
:1006F000012A0CD0022A0AD0032A09D104E01AB137
:10070000012A06D0022A03D1C96AC90100D50120F5
:1007100010BDC96AA142FAD010BD002AF7D0012A43
:10072000F2D0022AF3D0032AF3D010BD704772B67C
:10073000FEE72DE9F0410446876D00F0A9FA064670
:1007400094F835000025022806D08020606584F8E2
:1007500034500120BDE8F0812068016821F01601C5
:1007600001602068416921F080014161206C08B975
:10077000A06C20B12068016821F0080101602068A8
:10078000016821F0010101600CE000F081FA801B9A
:10079000052807D920206065032084F8350084F8F7
:1007A0003450D7E720680068C007EED194F85C1099
:1007B0003F208840B860012084F8350084F8345028
:1007C0000020C7E790F83510022903D08021416549
:1007D00001207047052180F835100068016821F07C
:1007E00001010160002070472DE9F84304464FF0F5
:1007F0000009CDF8009063484FF41651A56D0068CC
:10080000B0FBF1F72E6894F85C10082000FA01F1B3
:1008100031420FD021680A6852070BD50A6822F0CE
:1008200004020A6094F85C108840A860606D40F093
:100830000100606594F85C104FF0010808FA01F0BF
:10084000304208D021684969090604D5A860606D66
:1008500040F00200606594F85C100420884030424B
:1008600008D021680968890704D5A860606D40F048
:100870000400606594F85C1010208840304218D065
:1008800021680968090714D5A86020680168490330
:1008900004D50068000308D5A16C07E00168C9050C
:1008A00003D4016821F008010160216C09B12046E0
:1008B000884794F85C1020208840304231D021686D
:1008C0000968C9062DD5A86094F835000528206868
:1008D000016806D0490347D5006800031DD4616C48
:1008E0001CE021F0160101602068416921F08001BF
:1008F0004161206C08B9A06C20B12068016821F02A
:100900000801016094F85C103F208840A86084F8DA
:10091000358084F83490216D1FE0E16B09B12046E9
:100920008847606D00282BD0606DC00714D005206B
:1009300084F835002068016821F001010160009809
:10094000401C0090B84203D820680068C007F6D168
:1009500084F8358084F83490E16C002910D001B01F
:100960002046BDE8F04308470168C905D5D40168B1
:1009700021F01001016084F8358084F83490CCE7D0
:10098000BDE8F883180000202DE9F041044600F08E
:100990007FF906465CB1022084F83500002584F812
:1009A00034502068016821F0010101600DE0012050
:1009B000BDE8F08100F06CF9801B052805D92020E6
:1009C0006065032084F83500F2E720680068C007FE
:1009D000F0D12268116820480140D4E9010318438E
:1009E000D4E903363343184363691843A3691843B2
:1009F000E3691843236A18430843616A042903D151
:100A0000D4E90B1319430843106020684069666AF3
:100A100020F0070130460E43012704280CD1A06ABC
:100A20000643E06A40B12046FFF756FE20B1402061
:100A3000606584F83570BAE7206846612046FFF7A4
:100A400037FE94F85C203F2191408160656584F811
:100A500035700020ACE700003F8010F02DE9F84F22
:100A6000DFF8F8A10022012403254FF00F090AF155
:100A7000040BAAF1040E00BF0B6804FA02F633401F
:100A8000B34270D10F7907F00307012F01D0022F75
:100A900016D187684FEA420805FA08FC27EA0C07D6
:100AA000D1F80CC00CFA08FC4CEA070CC0F808C0DE
:100AB0004768B7430E79C6F3001696403E4346603A
:100AC0000E79F643B6070AD0C7684FEA420C05FA1A
:100AD0000CF6B7438E6806FA0CF63E43C6600E79F4
:100AE00006F00306022E10D1D60800EB8608D8F8CF
:100AF000206057074FEAD76C09FA0CF7BE430F691D
:100B000007FA0CF73743C8F8207006684FEA420C22
:100B100005FA0CF7BE430F7907F0030707FA0CF745
:100B2000374307604E6816F4403F1CD04C4E376880
:100B300047F480473760366822F0030706F48046A2
:100B40000096484E07EB060CDCF8086897073F0F45
:100B500009FA07F826EA0806DFF80C81404503D1B8
:100B60004FF0000841E072E0DFF80081404502D11B
:100B70004FF0010839E0DFF8F880404502D14FF02E
:100B8000020832E0DFF8EC80404502D14FF0030864
:100B90002BE0DFF8E480404502D14FF0040824E068
:100BA000DFF8D880404502D14FF005081DE0DFF89E
:100BB000D080404502D14FF0060816E0DFF8C4802F
:100BC000404502D14FF007080FE0DFF8BC804045F8
:100BD00002D14FF0080808E0DFF8B080404502D1AC
:100BE0004FF0090801E04FF00A0808FA07F848EA50
:100BF0000608CCF80888DAF800605746D1F804C037
:100C00009E435FEACC2C00D51E433E60DBF80060BB
:100C10005F46D1F804C09E435FEA8C2C00D51E438A
:100C20003E60DEF800607746D1F804C09E435FEA7C
:100C30008C3C00D51E433E60084F083F3E68D1F80B
:100C400004C09E435FEACC3C00D51E433E60521C6C
:100C5000102AFFF411AFBDE8F88F0000083C0140F6
:100C600044380240003001400000024000040240CD
:100C700000080240000C0240001002400014024034
:100C800000180240001C02400020024000240240E4
:100C900001488068704700000C000020024881680D
:100CA00002781144816070470C0000200B4810B599
:100CB000016841F400710160016841F480610160E4
:100CC000016841F480710160032000F06FF80F208B
:100CD00000F006F800F024F8002010BD003C0240AF
:100CE00070B50D4D04464FF47A712878B1FBF0F0E1
:100CF0000A490968B1FBF0F000F044FB48B9102C38
:100D000007D200222146501E00F030F800206C600F
:100D100070BD012070BD00000C00002018000020F4
:100D20000A4808B5016841F480410160006800F498
:100D3000804000900548001F016841F0805101602B
:100D4000006800F08050009008BD00004438024068
:100D5000002809DB00F01F020121914040098000BA
:100D600000F1E020C0F8001170470000F0B40E4B15
:100D70001B680C46C3F30223C3F10705042D00D9F9
:100D80000425191D072901D2002300E0DB1E0126DE
:100D900006FA05F1491E214099409E40761E1640F4
:100DA0003143F0BC01F0E9B80CED00E0064900F079
:100DB000070208684FF6FF03184040EA0220034A82
:100DC00010430860704700000CED00E00000FA05D9
:100DD0002DE9F8431748016841F08051016000682F
:100DE000154F00F08050012600903E64FFF750FF41
:100DF00005464FF47A78114C05E000BFFFF748FF35
:100E0000401B40450DD86068C003F7D57E64FFF7EE
:100E10003FFF0546464607E0FFF73AFF401BB0425A
:100E200002D90320BDE8F88360688003F4D5002070
:100E3000F8E700004038024000000E420070004019
:100E40002DE9F0470E46050065D0DFF81481D8F88B
:100E50000000F7B200F00F00B04207D288F800702F
:100E6000D8F8000000F00F00B04254D128683D4C83
:100E7000810712D5400703D5206840F4E050206078
:100E80002878000703D5206840F46040206020687F
:100E9000A96820F0F000084320602878C0072DD012
:100EA000304968680839012812D0022813D0032875
:100EB00011D00968890700292DDA216821F0030182
:100EC00001432160FFF7E4FE814641F2883A0EE0DB
:100ED00009688903EFE709688901ECE7FFF7D8FEA5
:100EE000A0EB0901514502D90320BDE8F087206835
:100EF000696800F00C00B0EB810FEFD1D8F800105A
:100F0000404601F00F01B14207D90770006800F0B8
:100F10000F00B04201D00120E7E72878400705D54F
:100F20002068E96820F4E050084320602878000732
:100F300006D52068296920F4604040EAC10020609D
:100F400000F038F82168084AC1F30311515CC84029
:100F50000649086006480068FFF7C2FE0020C4E7A3
:100F6000003C024008380240CA2000081800002057
:100F7000100000200448054900680968044AC1F3CC
:100F80008221515CC8407047180000200838024098
:100F9000DA2000080448054900680968044AC1F3DA
:100FA0004231515CC84070471800002008380240A8
:100FB000DA200008154810B5006810F00C0214483B
:100FC00013D01449042A0FD0082A0ED10F4C241F25
:100FD0002268236802F03F025B0207D52068C0F355
:100FE0008810A0FB010106E0084610BD2168C1F38E
:100FF0008811A1FB00010023FFF74CF92168C1F320
:101000000141491C4900B0FBF1F010BD0838024015
:101010000024F40040787D012DE9F84F04006ED0E3
:101020002078DFF84C93C007A9F104054AD009F1F4
:1010300004000168C1F38101012908D00068C0F3F0
:10104000810002280AD1D9F80000400206D528689C
:10105000800337D560680028E1D033E06068B0F5E0
:10106000803F10D0B0F5A02F286810D020F4803039
:101070002860286820F4802028606068A8B1FFF705
:1010800007FE06460DE0286840F48030F4E740F49F
:1010900080202860F7E700BFFFF7FAFD801B642877
:1010A00073D828688003F7D50CE0FFF7F1FD0646FA
:1010B00005E000BFFFF7ECFD801B6428F0D828682E
:1010C0008003F7D42078DFF8AC8280074FF0000A65
:1010D0003ED5A748001D016811F00C0F08D000682C
:1010E000C0F3810002280BD1D9F80000400207D4D8
:1010F0002868800716D5E068012800D112E033E1A6
:10110000E068B8B10120C8F80000FFF7C1FD06464D
:1011100005E000BFFFF7BCFD801B0228C0D828688F
:101120008007F7D52868216920F0F80040EAC1005F
:1011300028600DE0C8F800A0FFF7AAFD064604E00D
:10114000FFF7A6FD801B02281FD828688007F7D468
:101150002078000722D5864F87486169703771B1C2
:1011600001210160FFF794FD064604E0FFF790FDC2
:10117000801B022809D838688007F7D50EE0C0F830
:1011800000A0FFF785FD064605E082E0FFF780FD41
:10119000801B02287DD838688007F7D42078400764
:1011A00068D5DFF8CCB100270BF13C0BDBF8000071
:1011B000C0000BD4DBF8001041F08051CBF80010D8
:1011C000DBF80000012700F0805000906B4E306883
:1011D000C00510D4306840F480703060FFF758FDCF
:1011E000009005E0FFF754FD0099401A022850D8FE
:1011F0003068C005F6D55E4EA0686C3601280FD069
:101200000528306810D020F001003060306820F0F0
:1012100004003060A068B8B1FFF73AFD00900FE01D
:10122000306840F00100F4E740F004003060F7E778
:10123000FFF72EFD0099411A41F28830814266D8AD
:1012400030688007F4D50EE0FFF722FD009007E03C
:10125000FFF71EFD0099411A41F28830814256D8AD
:1012600030688007F4D42FB1DBF8001021F08051F2
:10127000CBF80010A069C8B33D49091D0968C1F346
:10128000810102294AD00228504607D0C8F86000E0
:1012900000E03CE0FFF7FCFC04463BE04746C8F8B2
:1012A0006000FFF7F5FC064605E000BFFFF7F0FC25
:1012B000801B02282BD828688001F7D4D4E90701C5
:1012C0000843A16A2E4A490802EB0141626A41EAD9
:1012D0008211084394F82C1040EA0161C9F800100B
:1012E00001203866FFF7D4FC044606E03EE000BF6C
:1012F000FFF7CEFC001B022809D828688001F7D52B
:1013000034E000BFFFF7C4FC001B022802D9032011
:10131000BDE8F88F28688001F4D427E00128F7D0D1
:10132000D9F80000E26900F4800191421CD1226AE0
:1013300000F03F01914217D147F6C071626A014047
:10134000B1EB821F10D1A26A4FF0FF3300F440319D
:1013500003EB5202B1EB024F06D194F82C1000F0CF
:101360007060B0EB016F01D00120D1E70020CFE722
:101370000438024000004742800E4742007000409F
:101380000000FFFF10B5401EB0F1807F01D30120A7
:1013900010BD4FF0E02460610F21601700F0EDFDFB
:1013A0000020A06107202061002010BD7047704719
:1013B00070B590F83C20012A32D0012480F83C40DE
:1013C000022280F83D2003685A689D6822F070066A
:1013D0000A6832435A60134B02689A4214D0B2F141
:1013E000804F11D0104B9A420ED0104B9A420BD026
:1013F0000F4B9A4208D00F4B9A4205D00E4B9A429F
:1014000002D00E4B9A4204D1496825F0800319435B
:10141000916080F83D40002180F83C10084670BD86
:10142000022070BD000001400004004000080040A0
:10143000000C004000040140004001400018004042
:1014400010B5040003D094F83D0010B107E001206E
:1014500010BD002084F83C00204600F01FF8022058
:1014600084F83D00211D206800F0C8FB012084F8AD
:10147000460084F83E0084F83F0084F8400084F879
:10148000410084F8420084F8430084F8440084F862
:10149000450084F83D00002010BD000008B500683C
:1014A0000B49884212D10B48016841F010010160DC
:1014B0000068002200F01000009011463620FFF76F
:1014C00055FCBDE808403620FFF742BC08BD0000CF
:1014D000001000404038024090F83D10012901D032
:1014E00001207047022180F83D100168CA6842F06F
:1014F0000102CA6000681149884214D0B0F1804FDF
:1015000011D00F4988420ED00E4988420BD00E49A7
:10151000884208D00D49884205D00D49884202D042
:101520000C49884204D1816801F00701062903D0E3
:10153000016841F001010160002070470000014096
:101540000004004000080040000C0040000401407E
:10155000004001400018004070472DE9F04104466A
:101560000068C66805694FF00007A90713D5B107E1
:1015700011D5F91E0161012020772068806980075C
:10158000204602D0FFF7E8FF04E000F07EF8204696
:1015900000F07CF82777680716D5700714D5216806
:1015A0006FF004000861022020772068806910F441
:1015B000407F204602D0FFF7CFFF04E000F065F83F
:1015C000204600F063F82777280715D5300713D594
:1015D00021686FF008000861042020772068C06946
:1015E0008007204602D0FFF7B7FF04E000F04DF877
:1015F000204600F04BF82777E80616D5F00614D5FC
:1016000021686FF010000861082020772068C06909
:1016100010F4407F204602D0FFF79EFF04E000F068
:1016200034F8204600F032F82777E80708D0F007B2
:1016300006D021686FF001000861204600F028F80C
:10164000280608D5300606D521686FF080000861AD
:101650002046FFF7ABFE680608D5700606D5216860
:101660006FF040000861204600F028F8A8060AD56F
:10167000B00608D521686FF0200008612046BDE85B
:10168000F041FFF794BEBDE8F0817047704700005D
:1016900010B50068074988420BD1074C2068401CF0
:1016A0002060FFF7F5FAA168401A6060FFF7F0FAD2
:1016B000A06010BD0010004000000020704770477F
:1016C00070470000F8B5016804460868CA684B69AD
:1016D00010F00F0F4FF0000559D003F0010602F48F
:1016E0009077374365D0C10705D0D10503D5616C2C
:1016F00041F001016164410705D5D90703D0616C50
:1017000041F002016164810705D5D90703D0616CFE
:1017100041F004016164010707D502F02001314363
:1017200003D0616C41F008016164616C00293AD01A
:10173000800604D5900602D5204600F0F5FA206810
:101740004069616CC0F38010090700D460B3204683
:1017500000F0C3FA20684069400621D520681430A3
:1017600050E8001F21F0400140E80012002AF5D1A6
:10177000E06BA8B172490165E06BFFF723F8002820
:1017800011D0E06B016D01B0BDE8F0400847830661
:101790000FD593060DD52046BDE8F84000F0C4BA39
:1017A0002046FFF78DFFF8BD2046FFF789FF6564EF
:1017B000F8BD266B2023012E7ED1C6067CD5D60629
:1017C0007AD508684868009048694FF002064006DC
:1017D0004DD5E26B106840684FF480770004000C30
:1017E0003AD0A18D814237D9E085D069B8422DD059
:1017F00020680C3050E8001F21F4807140E800128E
:10180000002AF5D12068143050E8001F21F00101B2
:1018100040E80012002AF5D12068143050E8001F7B
:1018200021F0400140E80012002AF5D184F842304E
:10183000256320680C3050E8001F21F0100140E8BB
:101840000012002AF5D1E06BFEF773FF6663A08DEE
:10185000E18D401A81B206E0A18D8142A8D1D06904
:10186000B842A5D166632046FFF729FFF8BDA08DD9
:10187000E18D401A81B2E08D0028F7D00029F5D023
:1018800020680C3050E8002F22F4907240E80027C6
:10189000002FF5D12068143050E8002F22F001020B
:1018A00040E80027002FF5D184F8423025632068F6
:1018B0000C3050E8002F00E006E022F0100240E873
:1018C0000023002BF3D1CDE705062BD5150629D52E
:1018D00094F841002128C9D1A068B0F5805F01D1FA
:1018E0002069B0B1206A411C2162216800784860FB
:1018F000E08C401E0004000CE084B7D12068C16871
:1019000021F08001C1602068C16841F04001C160E0
:10191000F8BD206A0088C0F308004860206A801C77
:101920002062E5E74006F3D55006F1D5CA682046A7
:1019300022F04002CA6084F8413000F0FAF8F8BDA5
:10194000CD1C000870B5040004D094F841000025B7
:1019500010B106E0012070BD84F84050204600F030
:1019600023F8242084F841002068C16821F4005144
:10197000C160204600F03AFA2068016921F49041E4
:1019800001612068416921F02A0141612068C16834
:1019900041F40051C1606564202084F8410084F85E
:1019A00042006563002070BD2DE9F04186B0064617
:1019B00014216846FEF794FD2F493068884257D1BC
:1019C0002E480024016841F010010160006800F019
:1019D0001000059029481438016841F001010160A8
:1019E0000068694600F0010005904FF4C060009067
:1019F0000220CDE901040320039007200490204831
:101A0000FFF72CF8204D1F484FF000672860C5E90C
:101A100001744FF48068C5E903486C61AC61EC6106
:101A20002C6228466C62FEF7AFFF08B1FEF77FFE1E
:101A3000F563AE631348154D7830E5E802074020A2
:101A4000A5E81101114845F81449AC61EC612C621C
:101A50006C62FEF799FF08B1FEF769FEB5630022DC
:101A600011462520AE63FFF781F92520FFF770F9B5
:101A700006B0BDE8F081000000100140443802408B
:101A80000000024040640240AC0000200C01002035
:101A900070472DE9F843044690F8410098461646F1
:101AA0000D46202802D00220BDE8F88385B17EB122
:101AB00000206064212084F84100FFF7E9F8A68443
:101AC0008146E684A0682027B0F5805F02D003E05D
:101AD0000120E9E7206910B12E4600250EE000261E
:101AE0000CE08021204600F007FAA8B9C6B116F82C
:101AF000010B21684860E08C401EE084E08C4B467E
:101B00004FF00002CDF800800028EAD14FF04001EC
:101B1000204600F0F1F940B184F841700320C3E79A
:101B200035F8020BC0F30800E3E784F841700020A9
:101B3000BAE77047FEE7FEE7FEE770477047FFF73A
:101B4000ADB8000070B592B030216846FEF7C8FC11
:101B500014210CA8FEF7C4FC1F480025016841F0C1
:101B600080510160006800F0805011901B480168AE
:101B700041F4404101600068022400F440401190AB
:101B800001200090000401908001CDE906400F265D
:101B90000896D820CDE9090404200B906846FFF789
:101BA0003BFA08B172B6FEE7FFF712F908B172B658
:101BB000FEE74FF4A050CDE90E504FF48050CDE930
:101BC0000C64109005210CA8FFF73AF9002801D009
:101BD00072B6FEE712B070BD40380240007000409F
:101BE0000248016841F470010160704788ED00E02F
:101BF0000148FFF7B2BC00001C000020F0B50268ED
:101C0000274B284D284E294F294C4FF0804C9842A5
:101C100009D0604507D0A84205D0B04203D0B842F1
:101C200001D0A04204D122F0700E4A6842EA0E02AE
:101C300098421BD0604519D0A84217D0B04215D0A9
:101C4000B84213D0A04211D01A4DA8420ED01A4D5E
:101C5000A8420BD0194DA84208D0194DA84205D072
:101C6000184DA84202D0184DA84203D122F4407565
:101C7000CA682A434D6922F080022A438D68C562F2
:101C80000D688562984201D0A04201D109690163C3
:101C9000016841F004010160012141610260F0BD71
:101CA000000001400004004000080040000C00401B
:101CB0000004014000400140004401400048014050
:101CC00000180040001C00400020004010B5806B50
:101CD0000021C185FFF7F4FC10BD01680C3151E80B
:101CE000002F22F4907241E80023002BF5D1016807
:101CF000143151E8002F22F0010241E80023002BAB
:101D0000F5D1016B012909D101680C3151E8002F8F
:101D100022F0100241E80023002BF5D1202180F8A9
:101D2000421000210163704708B590F84210222943
:101D300001D0022008BD82684FF480539A4201D13D
:101D4000016921B1816A9A421BD04AB10AE0026856
:101D5000816A5268C2F308020A80816A891C08E01D
:101D6000026972B10268526802F07F020A70816AE9
:101D7000491C8162C18D491E0904090CC18503D02B
:101D80001BE002685268F1E70168CA6822F020028D
:101D9000CA600168CA6822F48072CA6001684A6930
:101DA00022F001024A61202180F8421000214163A3
:101DB000026B012A03D0FFF76BFE002008BD016310
:101DC00001680C3151E8002F22F0100241E8002395
:101DD000002BF5D101680A68D20602D50A68496865
:101DE0000091818DFFF76BFCE7E7000070B50446BA
:101DF00000680169E26821F44051114301612169E1
:101E0000A068E26908436169114308432168CA6810
:101E100049F20C639A430243CA6020684169A2698F
:101E200021F440711143416131492068884202D058
:101E30003049884202D1FFF7ADF801E0FFF79AF888
:101E4000E2690023192164253226B2F5004F626849
:101E500028D0A0FB0101930F9200FEF71BFA014668
:101E6000B0FBF5F06FF01802504301EB800006EB79
:101E70000010B0FBF5F000F0F002B1FBF5F002EB62
:101E80000012B1FBF5F06FF01803584301EB80002E
:101E900006EB0010B0FBF5F000F00F0021681044D5
:101EA000886070BDA0FB010192185B41FEF7F2F95A
:101EB0000146B0FBF5F00201B1FBF5F06FF018033D
:101EC000584301EB800006EBC000B0FBF5F000F0DA
:101ED000F80002EB4002B1FBF5F0584301EB800043
:101EE00006EBC000B0FBF5F000F00700D6E70000FD
:101EF00000100140001401402DE9F84398461746B0
:101F00000D460446089E24E0701C22D0FEF7C0FE59
:101F1000A0EB0800B0421AD8CEB12068C1684907CA
:101F200017D5802D15D0402D13D00168C94309075E
:101F30000FD401680025406800902046FFF7CDFED1
:101F40000820606484F840500120BDE8F883032035
:101F5000FBE72068006835EA000004D00020B842A2
:101F6000D2D00020F1E70120F9E700000148FFF797
:101F7000A9BB000064000020FEE70907090E002845
:101F800004DB00F1E02080F80014704700F00F003F
:101F900000F1E02080F8141D7047000092B0002589
:101FA000FEF784FEFFF7CEFD37480024016841F0BC
:101FB00080010160016801F080011091016841F029
:101FC00001010160016801F001011091016841F413
:101FD000800101600068002200F48000109011462A
:101FE0003A20FEF7C3FE3A20FEF7B2FE0022114669
:101FF0004620FEF7BBFE4620FEF7AAFE24482349F2
:1020000001604FF4E131C0E901140C21C460C0E962
:1020100004418461C461FFF795FC08B172B6FEE724
:102020001B48109448381B491194016042F2273133
:10203000C0E9011442F20F718461C160FFF700FA38
:1020400008B172B6FEE71248109410A948381194EE
:10205000FFF7AEF908B172B6FEE70D484838FFF752
:102060003BFA0D4C2068A842FCD0256863682268C2
:102070000AA16846FEF786F982B2642369460448DD
:10208000FFF707FDEEE70000303802400010014086
:102090006400002000100040000000207469636BA1
:1020A0003D256C752020696E74657276616C3D25E6
:1020B0006C750D0A000000004FF04070E1EE100A50
:1020C0007047000610160006101600000000000001
:1020D00000000102030406070809000000000102D5
:1020E0000304000004210008000000201C00000080
:1020F000E8010008202100081C000020B4070000AF
:1021000004020008000000000000000000000000C1
:102110000100000010000000000000000024F40096
:04000005080001AD41
:00000001FF
