:020000040800F2
:10000000C007002055020008CF190008F7180008A3
:10001000CD19000857060008D91E0008000000008E
:10002000000000000000000000000000D3190008DC
:100030001507000800000000D1190008D5190008B4
:100040006F0200086F0200086F0200086F020008CC
:100050006F0200086F0200086F0200086F020008BC
:100060006F0200086F0200086F0200086F020008AC
:100070006F0200086F0200086F0200086F0200089C
:100080006F0200086F0200086F0200086F0200088C
:100090006F0200086F0200086F0200086F0200087C
:1000A0006F0200086F0200086F0200086F0200086C
:1000B0006F0200086F0200086F0200086F0200085C
:1000C0006F0200086F0200086F0200086F0200084C
:1000D0006F020008CD1E00086F0200086F020008C2
:1000E0006F0200086F0200086F0200086F0200082C
:1000F0006F0200086F0200086F0200086F0200081C
:100100006F0200086F0200086F0200086F0200080B
:100110006F0200086F0200086F0200086F020008FB
:100120006F0200086F020008590600086F020008FD
:100130006F0200086F0200086F0200086F020008DB
:100140006F0200086F0200086F0200086F020008CB
:100150006F0200086F020008650600086F020008C1
:100160006F0200086F0200086F0200086F020008AB
:100170006F0200086F0200086F0200080000000014
:100180006F0200086F0200086F0200086F0200088B
:100190006F0200086F0200086F0200086F0200087B
:1001A0006F0200086F0200086F02000800F002F8FA
:1001B00000F041F80AA090E8000C82448344AAF1C0
:1001C0000107DA4501D100F036F8AFF2090EBAE8BE
:1001D0000F0013F0010F18BFFB1A43F0010318477B
:1001E000EC2000000C210000103A24BF78C878C130
:1001F000FAD8520724BF30C830C144BF04680C602D
:10020000704700000023002400250026103A28BF74
:1002100078C1FBD8520728BF30C148BF0B60704778
:10022000732900F0DA81002070471FB502F038F81A
:100230001FBD10B510BD00F0D4F91146FFF7F5FF52
:1002400001F05CFE00F0F2F903B4FFF7F2FF03BC2B
:1002500000F0FAF90948804709480047FEE7FEE741
:10026000FEE7FEE7FEE7FEE7FEE7FEE7FEE7FEE766
:1002700004480549054A064B70470000751A0008F6
:10028000AD010008C0010020C0070020C00300200D
:10029000C003002053EA020C00F069802DE9F04B06
:1002A0004FF00006002B1FBFB3FA83F503FA05F4E5
:1002B00024FA05F65E4012BF1643B2FA82F502FA3E
:1002C00005F4C5F120051EBF22FA05FC44EA0C0422
:1002D000203556EA044C4FEA144418BF641C4FF012
:1002E00000084FF00009904271EB030C39D300294C
:1002F00019BFB1FA81F701FA07F6B0FA80F700FAF0
:1003000007F6C7F120071EBF20FA07FC46EA0C06D5
:100310002037B6FBF4FCA7EB0507103F07F01F0BD7
:10032000CBF120060CFA0BFB2CFA06F644BFB346C1
:100330000026202FA4BF5E464FF0000B5BEA060CA0
:1003400008BF4FF0010B19EB0B09ABFB027C48EB2C
:100350000608C01B06FB02CC0BFB03CC71EB0C01A7
:10036000C1E70B46024641464846BDE8F08B13B54F
:100370004FF000004FF00001AFF30080BDE81C40DB
:10038000704700000FB41CB5074B06AA7B446946B2
:100390000090059800F0F7F80020694600F006F993
:1003A0001CBC5DF814FB00001D0200002DE9F041AB
:1003B0000E460446002020622046E168884730B39C
:1003C000252805D0D4E901219047206A401CF2E796
:1003D000E168204600278847050018D0A5F14100B4
:1003E000192802D820354FF40067324629462046A6
:1003F0002760FFF715FF40B1012804D0F61D26F055
:1004000007060836D8E7361DD6E72846DAE7206A19
:10041000BDE8F08170B50C460546012A05D0287864
:10042000800600D5EA69002302E0012305E05B1C99
:10043000934202D2E05C0028F9D1A869E618C01AFC
:10044000A861286A184428622846AFF3008004E0B7
:10045000D5E9012114F8010B9047B442F8D328469E
:10046000AFF3008070BD10B5431C02E010F8011B13
:1004700071B18107FAD14FF0013202C88C1A8C4356
:1004800014EAC211F9D0C01A0A0603D0C01E10BD6A
:10049000C01A10BD0A0401D0801E10BD0902FCD094
:1004A000401E10BD4FF0000200B51346944696461C
:1004B000203922BFA0E80C50A0E80C50B1F1200177
:1004C000BFF4F7AF090728BFA0E80C5048BF0CC025
:1004D0005DF804EB890028BF40F8042B08BF704783
:1004E00048BF20F8022B11F0804F18BF00F8012BF5
:1004F000704700004FF0013C50F8042B51F8043BCA
:100500009A4221D1A2EB0C03934313EACC1317D1E7
:1005100050F8042B51F8043B9A4215D1A2EB0C037E
:10052000934313EACC130BD150F8042B51F8043B3E
:100530009A4209D1A2EB0C03934313EACC13DBD00C
:100540004FF00000704700BFD01A01BAB1FA81F134
:1005500001F0180122FA01F0CB40C1F12001DBB219
:10056000C0B2C01A2CFA01F3D11A914311EAC31197
:10057000E6D17047704770477047000001694A1C18
:1005800002610878704700B58FB0CDE901310021D4
:10059000059105497944CDE9031011466846FFF7F6
:1005A00005FF0FB000BD0000E5FFFFFF0A6802F87D
:1005B000010B0A60704710B5436913B1AFF30080B7
:1005C00001E0FFF727FF012010BD127800F12401A0
:1005D0000A7000224A700122EDE711684FF0FF32E5
:1005E000E9E7754600F02CF8AE460500694653462B
:1005F00020F00700854618B020B5FFF739FEBDE8AA
:1006000020404FF000064FF000074FF000084FF079
:10061000000B21F00701AC46ACE8C009ACE8C0090A
:10062000ACE8C009ACE8C0098D46704710B5044677
:10063000AFF300802046BDE81040FFF705BE000084
:10064000004870476001002001491820ABBEFEE75A
:10065000260002007047FEE7014800F0B9B800002C
:10066000A0000020014800F0B3B800000001002005
:1006700001681823CAB2103AB2FBF3F2054B6FF3CC
:100680000901032A9B5CC36500D9091D81650846E1
:1006900070470000AA22000810B5014600208B69AF
:1006A0008A6A4FF0C07453B1B3F5005F15D072B1D0
:1006B000012A0CD0022A0AD0032A09D104E01AB177
:1006C000012A06D0022A03D1C96AC90100D5012036
:1006D00010BDC96AA142FAD010BD002AF7D0012A84
:1006E000F2D0022AF3D0032AF3D010BD30B504684B
:1006F000256825F480252560046863608368402BA5
:10070000036803D099600068C26030BD9A600068D9
:10071000C16030BD704772B6FEE72DE9F041044676
:10072000876D00F0E7FA064694F8350000250228A8
:1007300006D08020606584F834500120BDE8F08147
:100740002068016821F0160101602068416921F0EC
:1007500080014161206C08B9A06C20B1206801685B
:1007600021F0080101602068016821F001010160A9
:100770000CE000F0BFFA801B052807D92020606537
:10078000032084F8350084F83450D7E720680068E7
:10079000C007EED194F85C103F208840B86001207B
:1007A00084F8350084F834500020C7E790F83510FD
:1007B000022903D08021416501207047052180F87E
:1007C00035100068016821F00101016000207047C8
:1007D0002DE9F84304464FF00009CDF80090634836
:1007E0004FF41651A56D0068B0FBF1F72E6894F830
:1007F0005C10082000FA01F131420FD021680A682C
:1008000052070BD50A6822F004020A6094F85C10C3
:100810008840A860606D40F00100606594F85C104D
:100820004FF0010808FA01F0304208D02168496908
:10083000090604D5A860606D40F00200606594F878
:100840005C1004208840304208D02168096889077C
:1008500004D5A860606D40F00400606594F85C10F9
:1008600010208840304218D021680968090714D543
:10087000A86020680168490304D50068000308D512
:10088000A16C07E00168C90503D4016821F00801E3
:100890000160216C09B12046884794F85C10202043
:1008A0008840304231D021680968C9062DD5A8603A
:1008B00094F8350005282068016806D0490347D51B
:1008C000006800031DD4616C1CE021F0160101607A
:1008D0002068416921F080014161206C08B9A06C59
:1008E00020B12068016821F00801016094F85C10D3
:1008F0003F208840A86084F8358084F83490216DCA
:100900001FE0E16B09B120468847606D00282BD0BD
:10091000606DC00714D0052084F835002068016898
:1009200021F0010101600098401C0090B84203D8FA
:1009300020680068C007F6D184F8358084F83490C8
:10094000E16C002910D001B02046BDE8F043084713
:100950000168C905D5D4016821F01001016084F84F
:10096000358084F83490CCE7BDE8F883140000208B
:100970002DE9F041044600F0BDF906465CB10220C5
:1009800084F83500002584F834502068016821F08F
:10099000010101600DE00120BDE8F08100F0AAF93D
:1009A000801B052805D920206065032084F83500C8
:1009B000F2E720680068C007F0D12268116820487B
:1009C0000140D4E901031843D4E903363343184303
:1009D00063691843A3691843E3691843236A1843FA
:1009E0000843616A042903D1D4E90B13194308436E
:1009F000106020684069666A20F0070130460E43A7
:100A0000012704280CD1A06A0643E06A40B12046C1
:100A1000FFF742FE20B14020606584F83570BAE7E8
:100A2000206846612046FFF723FE94F85C203F21B2
:100A300091408160656584F835700020ACE7000066
:100A40003F8010F02DE9F0410446866D90F83400A7
:100A5000002501280DD0012084F8340094F8357069
:100A60000020012F07D084F8340002252846BDE875
:100A7000F0810220FBE7022784F83570606520468C
:100A8000FFF734FE94F85C103F208840B060206887
:100A9000016841F016010160206C20B120680168F6
:100AA00041F0080101602068016841F00101016026
:100AB000DCE700002DE9F84FDFF8F8A1002201245F
:100AC00003254FF00F090AF1040BAAF1040E00BF31
:100AD0000B6804FA02F63340B34270D10F7907F085
:100AE0000307012F01D0022F16D187684FEA420871
:100AF00005FA08FC27EA0C07D1F80CC00CFA08FC30
:100B00004CEA070CC0F808C04768B7430E79C6F333
:100B1000001696403E4346600E79F643B6070AD06B
:100B2000C7684FEA420C05FA0CF6B7438E6806FA1E
:100B30000CF63E43C6600E7906F00306022E10D175
:100B4000D60800EB8608D8F8206057074FEAD76C24
:100B500009FA0CF7BE430F6907FA0CF73743C8F8D8
:100B6000207006684FEA420C05FA0CF7BE430F7975
:100B700007F0030707FA0CF7374307604E6816F4CF
:100B8000403F1CD04C4E376847F48047376036688A
:100B900022F0030706F480460096484E07EB060C49
:100BA000DCF8086897073F0F09FA07F826EA0806F5
:100BB000DFF80C81404503D14FF0000841E072E0BE
:100BC000DFF80081404502D14FF0010839E0DFF83D
:100BD000F880404502D14FF0020832E0DFF8EC80A7
:100BE000404502D14FF003082BE0DFF8E480404598
:100BF00002D14FF0040824E0DFF8D880404502D14C
:100C00004FF005081DE0DFF8D080404502D14FF0DD
:100C1000060816E0DFF8C480404502D14FF007080F
:100C20000FE0DFF8BC80404502D14FF0080808E033
:100C3000DFF8B080404502D14FF0090801E04FF0E5
:100C40000A0808FA07F848EA0608CCF80888DAF82B
:100C500000605746D1F804C09E435FEACC2C00D513
:100C60001E433E60DBF800605F46D1F804C09E433F
:100C70005FEA8C2C00D51E433E60DEF800607746AC
:100C8000D1F804C09E435FEA8C3C00D51E433E6011
:100C9000084F083F3E68D1F804C09E435FEACC3C51
:100CA00000D51E433E60521C102AFFF411AFBDE870
:100CB000F88F0000083C01404438024000300140F9
:100CC000000002400004024000080240000C024004
:100CD000001002400014024000180240001C0240B4
:100CE00000200240002402400AB1816170470904DB
:100CF000FBE7000001488068704700000800002002
:100D00000248816802781144816070470800002021
:100D10000B4810B5016841F400710160016841F4AD
:100D200080610160016841F480710160032000F07E
:100D30006FF80F2000F006F800F024F8002010BD36
:100D4000003C024070B50D4D04464FF47A7128788E
:100D5000B1FBF0F00A490968B1FBF0F000F044FB88
:100D600048B9102C07D200222146501E00F030F85E
:100D700000206C6070BD012070BD000008000020E4
:100D8000140000200A4808B5016841F48041016060
:100D9000006800F4804000900548001F016841F0A1
:100DA00080510160006800F08050009008BD000094
:100DB00044380240002809DB00F01F020121914065
:100DC0004009800000F1E020C0F8001170470000E9
:100DD000F0B40E4B1B680C46C3F30223C3F10705A6
:100DE000042D00D90425191D072901D2002300E094
:100DF000DB1E012606FA05F1491E214099409E405E
:100E0000761E16403143F0BC01F067B80CED00E0EF
:100E1000064900F0070208684FF6FF03184040EA51
:100E20000220034A10430860704700000CED00E008
:100E30000000FA052DE9F8431748016841F0805198
:100E400001600068154F00F08050012600903E645C
:100E5000FFF750FF05464FF47A78114C05E000BFCC
:100E6000FFF748FF401B40450DD86068C003F7D529
:100E70007E64FFF73FFF0546464607E0FFF73AFF6F
:100E8000401BB04202D90320BDE8F88360688003AC
:100E9000F4D50020F8E700004038024000000E4280
:100EA000007000402DE9F0470E46050065D0DFF8E0
:100EB0001481D8F80000F7B200F00F00B04207D25A
:100EC00088F80070D8F8000000F00F00B04254D14C
:100ED00028683D4C810712D5400703D5206840F4AF
:100EE000E05020602878000703D5206840F4604077
:100EF00020602068A96820F0F0000843206028786E
:100F0000C0072DD0304968680839012812D002285E
:100F100013D0032811D00968890700292DDA216828
:100F200021F0030101432160FFF7E4FE814641F215
:100F3000883A0EE009688903EFE709688901ECE760
:100F4000FFF7D8FEA0EB0901514502D90320BDE807
:100F5000F0872068696800F00C00B0EB810FEFD1DA
:100F6000D8F80010404601F00F01B14207D90770D0
:100F7000006800F00F00B04201D00120E7E72878B8
:100F8000400705D52068E96820F4E0500843206058
:100F90002878000706D52068296920F4604040EAD7
:100FA000C100206000F038F82168084AC1F303113D
:100FB000515CC8400649086006480068FFF7C2FE59
:100FC0000020C4E7003C024008380240B22200087A
:100FD000140000200C00002004480549006809683E
:100FE000044AC1F38221515CC840704714000020BC
:100FF00008380240C2220008044805490068096810
:10100000044AC1F34231515CC840704714000020CB
:1010100008380240C2220008154810B5006810F0D8
:101020000C02144813D01449042A0FD0082A0ED1F8
:101030000F4C241F2268236802F03F025B0207D591
:101040002068C0F38810A0FB010106E0084610BD2F
:101050002168C1F38811A1FB00010023FFF71AF9F1
:101060002168C1F30141491C4900B0FBF1F010BDFA
:10107000083802400024F40040787D012DE9F84F43
:1010800004006ED02078DFF84C93C007A9F1040566
:101090004AD009F104000168C1F38101012908D097
:1010A0000068C0F3810002280AD1D9F8000040028C
:1010B00006D52868800337D560680028E1D033E082
:1010C0006068B0F5803F10D0B0F5A02F286810D030
:1010D00020F480302860286820F480202860606830
:1010E000A8B1FFF707FE06460DE0286840F48030FF
:1010F000F4E740F480202860F7E700BFFFF7FAFD2F
:10110000801B642873D828688003F7D50CE0FFF7AC
:10111000F1FD064605E000BFFFF7ECFD801B6428EB
:10112000F0D828688003F7D42078DFF8AC828007F5
:101130004FF0000A3ED5A748001D016811F00C0FC2
:1011400008D00068C0F3810002280BD1D9F8000054
:10115000400207D42868800716D5E068012800D12E
:1011600012E033E1E068B8B10120C8F80000FFF7F1
:10117000C1FD064605E000BFFFF7BCFD801B02284D
:10118000C0D828688007F7D52868216920F0F800C2
:1011900040EAC10028600DE0C8F800A0FFF7AAFDF2
:1011A000064604E0FFF7A6FD801B02281FD828682A
:1011B0008007F7D42078000722D5864F87486169D9
:1011C000703771B101210160FFF794FD064604E01C
:1011D000FFF790FD801B022809D838688007F7D5F3
:1011E0000EE0C0F800A0FFF785FD064605E082E0AE
:1011F000FFF780FD801B02287DD838688007F7D470
:101200002078400768D5DFF8CCB100270BF13C0B04
:10121000DBF80000C0000BD4DBF8001041F0805177
:10122000CBF80010DBF80000012700F080500090A0
:101230006B4E3068C00510D4306840F48070306068
:10124000FFF758FD009005E0FFF754FD0099401AA4
:10125000022850D83068C005F6D55E4EA0686C36BE
:1012600001280FD00528306810D020F00100306030
:10127000306820F004003060A068B8B1FFF73AFD94
:1012800000900FE0306840F00100F4E740F0040007
:101290003060F7E7FFF72EFD0099411A41F28830E0
:1012A000814266D830688007F4D50EE0FFF722FD52
:1012B000009007E0FFF71EFD0099411A41F28830C7
:1012C000814256D830688007F4D42FB1DBF8001083
:1012D00021F08051CBF80010A069C8B33D49091D29
:1012E0000968C1F3810102294AD00228504607D07B
:1012F000C8F8600000E03CE0FFF7FCFC04463BE07F
:101300004746C8F86000FFF7F5FC064605E000BF59
:10131000FFF7F0FC801B02282BD828688001F7D447
:10132000D4E907010843A16A2E4A490802EB0141AA
:10133000626A41EA8211084394F82C1040EA016184
:10134000C9F8001001203866FFF7D4FC044606E017
:101350003EE000BFFFF7CEFC001B022809D828683A
:101360008001F7D534E000BFFFF7C4FC001B022862
:1013700002D90320BDE8F88F28688001F4D427E063
:101380000128F7D0D9F80000E26900F48001914209
:101390001CD1226A00F03F01914217D147F6C0717B
:1013A000626A0140B1EB821F10D1A26A4FF0FF3395
:1013B00000F4403103EB5202B1EB024F06D194F836
:1013C0002C1000F07060B0EB016F01D00120D1E76C
:1013D0000020CFE70438024000004742800E474219
:1013E000007000400000FFFF10B5401EB0F1807F8C
:1013F00001D3012010BD4FF0E02460610F21601780
:1014000000F06BFD0020A06107202061002010BDCE
:1014100038B5044690F84200202801D0022038BD9B
:1014200051B14AB10120206300206063204600F0E2
:10143000C3FC216B012901D0012038BD21680A6855
:101440004968009121680C3151E8002F42F01002E8
:1014500041E80023002BF5D138BD0000064A904238
:1014600009D10648418001210170034940224831D9
:101470000148FFF7CDBF7047180000200000002092
:1014800070470000F8B5016804460868CA684B69EF
:1014900010F00F0F4FF0000559D003F0010602F4D1
:1014A0009077374365D0C10705D0D10503D5616C6E
:1014B00041F001016164410705D5D90703D0616C92
:1014C00041F002016164810705D5D90703D0616C41
:1014D00041F004016164010707D502F020013143A6
:1014E00003D0616C41F008016164616C00293AD05D
:1014F000800604D5900602D5204600F076FB2068D1
:101500004069616CC0F38010090700D460B32046C5
:1015100000F036FB20684069400621D52068143071
:1015200050E8001F21F0400140E80012002AF5D1E8
:10153000E06BA8B172490165E06BFFF737F900284D
:1015400011D0E06B016D01B0BDE8F04008478306A3
:101550000FD593060DD52046BDE8F84000F045BBF9
:101560002046FFF78DFFF8BD2046FFF789FF656431
:10157000F8BD266B2023012E7ED1C6067CD5D6066B
:101580007AD508684868009048694FF0020640061E
:101590004DD5E26B106840684FF480770004000C72
:1015A0003AD0A18D814237D9E085D069B8422DD09B
:1015B00020680C3050E8001F21F4807140E80012D0
:1015C000002AF5D12068143050E8001F21F00101F5
:1015D00040E80012002AF5D12068143050E8001FBE
:1015E00021F0400140E80012002AF5D184F8423091
:1015F000256320680C3050E8001F21F0100140E8FE
:101600000012002AF5D1E06BFFF787F86663A08D22
:10161000E18D401A81B206E0A18D8142A8D1D06946
:10162000B842A5D166632046FFF718FFF8BDA08D2C
:10163000E18D401A81B2E08D0028F7D00029F5D065
:1016400020680C3050E8002F22F4907240E8002708
:10165000002FF5D12068143050E8002F22F001024D
:1016600040E80027002FF5D184F842302563206838
:101670000C3050E8002F00E006E022F0100240E8B5
:101680000023002BF3D1CDE705062BD5150629D570
:1016900094F841002128C9D1A068B0F5805F01D13C
:1016A0002069B0B1206A411C21622168007848603D
:1016B000E08C401E0004000CE084B7D12068C168B3
:1016C00021F08001C1602068C16841F04001C16023
:1016D000F8BD206A0088C0F308004860206A801CBA
:1016E0002062E5E74006F3D55006F1D5CA682046EA
:1016F00022F04002CA6084F8413000F0FBF8F8BDE7
:10170000851A000870B5040004D094F84100002543
:1017100010B106E0012070BD84F84050204600F072
:1017200023F8242084F841002068C16821F4005186
:10173000C160204600F0BAFA2068016921F49041A6
:1017400001612068416921F02A0141612068C16876
:1017500041F40051C1606564202084F8410084F8A0
:1017600042006563002070BD2DE9F04186B0064659
:1017700014216846FEF796FE2F493068884257D1FB
:101780002E480024016841F010010160006800F05B
:101790001000059029481438016841F001010160EA
:1017A0000068694600F0010005904FF4C0600090A9
:1017B0000220CDE901040320039007200490204873
:1017C000FFF778F9204D1F484FF000672860C5E902
:1017D00001744FF48068C5E903486C61AC61EC6149
:1017E0002C6228466C62FFF7C3F808B1FEF793FF3E
:1017F000F563AE631348154D7830E5E802074020E5
:10180000A5E81101114845F81449AC61EC612C625E
:101810006C62FFF7ADF808B1FEF77DFFB5630022FB
:1018200011462520AE63FFF7D3FA2520FFF7C2FA51
:1018300006B0BDE8F08100000010014044380240CD
:101840000000024040640240A0000020000100208F
:10185000704770472DE9F843044690F841009846D8
:1018600016460D46202802D00220BDE8F88385B137
:101870007EB100206064212084F84100FFF73AFA2D
:10188000A6848146E684A0682027B0F5805F02D058
:1018900003E00120E9E7206910B12E4600250EE0A3
:1018A00000260CE08021204600F0D6FAA8B9C6B187
:1018B00016F8010B21684860E08C401EE084E08C43
:1018C0004B464FF00002CDF800800028EAD14FF0DF
:1018D0004001204600F0C0FA40B184F84170032076
:1018E000C3E735F8020BC0F30800E3E784F8417062
:1018F0000020BAE77047FEE700B5012000F014F8B9
:10190000022000F011F803205DF804EB00F00CB8A1
:1019100000B5012000F018F8022000F015F80320AF
:101920005DF804EB00F010B8411E032907D20A311C
:1019300001228A4002490A60024A0021115470477C
:10194000181C024004000020411E032908D2054B48
:1019500000F11902012101FA02F21A60024A11543F
:1019600070470000181C02400400002070B586B0CB
:1019700014216846FEF796FD12480024016841F0E4
:1019800080010160016801F080010591016841F06A
:101990000101016000680C4E00F001004FF4E055B9
:1019A0000590224629463046FFF79EF90120009512
:1019B000CDE90104694630460394FFF77BF806B091
:1019C00070BD000030380240001C0240FEE7FEE718
:1019D00070477047FFF794B970B592B030216846F0
:1019E000FEF760FD14210CA8FEF75CFD1F480025E2
:1019F000016841F080510160006800F08050119052
:101A00001B48016841F4404101600068022400F471
:101A10004040119001200090000401908001CDE928
:101A200006400F260896D820CDE9090404200B9023
:101A30006846FFF723FB08B172B6FEE7FFF7FAF935
:101A400008B172B6FEE74FF4A050CDE90E504FF446
:101A50008050CDE90C64109005210CA8FFF722FA04
:101A6000002801D072B6FEE712B070BD40380240C7
:101A7000007000400248016841F470010160704745
:101A800088ED00E010B5806B0021C185FFF7F8FC00
:101A900010BD70B5846B2068406994F84110C0F3A4
:101AA000C0100025212904D118B1E584204600F09A
:101AB0008EF82068406994F84210C0F38010222903
:101AC00004D118B1E585204600F05AF8606C40F06A
:101AD000100060642046FFF7D3FC70BD10B50146CE
:101AE000806B096809684FF00002C9052ED4C285D1
:101AF00001680C3151E8003F23F4807341E8003461
:101B0000002CF5D10168143151E8003F23F00103A6
:101B100041E80034002CF5D10168143151E8003F50
:101B200023F0400341E80034002CF5D1202180F857
:101B30004210016B012909D101680C3151E8003FC5
:101B400023F0100341E80034002CF5D14263016B0F
:101B5000012902D0FFF77CFE10BD818DFFF77EFCCE
:101B600010BD10B5806B01214163016B012902D0CA
:101B7000FFF76FFE10BD818D4908FFF76FFC10BDA8
:101B800001680C3151E8002F22F4907241E80023E3
:101B9000002BF5D10168143151E8002F22F0010229
:101BA00041E80023002BF5D1016B012909D101681F
:101BB0000C3151E8002F22F0100241E80023002BE5
:101BC000F5D1202180F8421000210163704701689F
:101BD0000C3151E8002F22F0C00241E80023002B15
:101BE000F5D1202180F84110704708B590F84210D7
:101BF000222901D0022008BD82684FF480539A4206
:101C000001D1016921B1816A9A421BD04AB10AE02F
:101C10000268816A5268C2F308020A80816A891CDC
:101C200008E0026972B10268526802F07F020A702D
:101C3000816A491C8162C18D491E0904090CC18554
:101C400003D01BE002685268F1E70168CA6822F01D
:101C50002002CA600168CA6822F48072CA60016802
:101C60004A6922F001024A61202180F842100021D5
:101C70004163026B012A03D0FFF7EAFD002008BD93
:101C8000016301680C3151E8002F22F0100241E895
:101C90000023002BF5D101680A68D20602D50A6834
:101CA00049680091818DFFF7D9FBE7E770B50446DD
:101CB00000680169E26821F4405111430161216922
:101CC000A068E26908436169114308432168CA6852
:101CD00049F20C639A430243CA6020684169A269D1
:101CE00021F440711143416131492068884202D09A
:101CF0003049884202D1FFF77FF901E0FFF76CF924
:101D0000E2690023192164253226B2F5004F62688A
:101D100028D0A0FB0101930F9200FEF7BBFA014609
:101D2000B0FBF5F06FF01802504301EB800006EBBA
:101D30000010B0FBF5F000F0F002B1FBF5F002EBA3
:101D40000012B1FBF5F06FF01803584301EB80006F
:101D500006EB0010B0FBF5F000F00F002168104416
:101D6000886070BDA0FB010192185B41FEF792FAFA
:101D70000146B0FBF5F00201B1FBF5F06FF018037E
:101D8000584301EB800006EBC000B0FBF5F000F01B
:101D9000F80002EB4002B1FBF5F0584301EB800084
:101DA00006EBC000B0FBF5F000F00700D6E700003E
:101DB000001001400014014038B58162044682855C
:101DC000002013466064222284F84220E56B1F4AFB
:101DD000EA63E56B1E4A2A64E56B1E4AEA64E26B1D
:101DE00010650A462168E06B091DFEF72BFE30B135
:101DF00010206064202084F84200012038BD206853
:101E0000016840680090206948B120680C3050E8B3
:101E1000001F41F4807140E80012002AF5D12068CB
:101E2000143050E8001F41F0010140E80012002A80
:101E3000F5D12068143050E8001F41F0400140E81F
:101E40000012002AF5D1002038BD0000DD1A00087C
:101E5000631B0008931A00082DE9F84398461746BB
:101E60000D460446089E24E0701C22D0FEF742FF77
:101E7000A0EB0800B0421AD8CEB12068C16849076B
:101E800017D5802D15D0402D13D00168C9430907FF
:101E90000FD401680025406800902046FFF770FECF
:101EA0000820606484F840500120BDE8F8830320D6
:101EB000FBE72068006835EA000004D00020B84243
:101EC000D2D00020F1E70120F9E700000148FFF738
:101ED000D9BA000018000020FEE70907090E002803
:101EE00004DB00F1E02080F80014704700F00F00E0
:101EF00000F1E02080F8141D7047000092B0FEF75A
:101F000007FFFFF769FDFFF731FD784800260168FC
:101F100041F4800101600068324600F480000090C6
:101F200031463A20FEF754FF3A20FEF743FF0022E5
:101F300011464620FEF74CFF4620FEF73BFF6D485A
:101F40006B4901604FF4E131C0E901160C21C66014
:101F5000C0E904618661C661FFF7D4FB08B172B6BF
:101F6000FEE76449402248316248FFF751FAFFF723
:101F7000C3FC604FDFF880814837A8F104052C4688
:101F800028780028FBD002E06088401E60806088CE
:101F900058B16088384410F8010C0D28F4D06088DE
:101FA000384410F8010C0A28EED0608853A13E5442
:101FB00050484830FEF79EFA002840D04D4851A1C5
:101FC0004830FEF797FA00283ED04A4850A14830E2
:101FD000FEF790FA00283CD046484FA14830FEF763
:101FE00089FA00283AD043484EA14830FEF782FAD9
:101FF000002838D03F484DA14830FEF77BFA002832
:1020000036D03C484CA14830FEF774FA002834D052
:1020100038484BA14830FEF76DFA002831D03548DA
:1020200049A14830FEF766FA00282ED0314848A171
:102030004830FEF75FFA00283BD047A051E001206E
:10204000FFF782FC46A04CE00120FFF76DFC48A0A2
:1020500047E00220FFF778FC49A042E00220FFF7AA
:1020600063FC4BA03DE00320FFF76EFC4CA038E082
:102070000320FFF759FC4EA033E0FFF749FC50A0C6
:102080002FE0FFF739FC51A02BE054A000F0FAF844
:1020900058A000F0F7F85DA000F0F4F861A000F09F
:1020A000F1F866A000F0EEF86AA000F0EBF86CA082
:1020B00017E098F80310404609B120A100E021A1E3
:1020C0000091817809B11DA300E01EA398F80100DA
:1020D00008B11AA200E01BA263A101A8FEF752F901
:1020E00001A800F0CFF8267049E700003038024020
:1020F0000010014018000020040000204C4544312D
:10210000204F4E004C454431204F46460000000011
:102110004C454432204F4E004C454432204F4646F9
:10212000000000004C454433204F4E004C454433E2
:10213000204F464600000000414C4C204F4E00000E
:10214000414C4C204F46460048454C500000000092
:1021500053544154555300004552524F520D0A00FA
:102160004C454431204F4E204F4B0D0A00000000DB
:102170004C454431204F4646204F4B0D0A0000008D
:102180004C454432204F4E204F4B0D0A00000000BA
:102190004C454432204F4646204F4B0D0A0000006C
:1021A0004C454433204F4E204F4B0D0A0000000099
:1021B0004C454433204F4646204F4B0D0A0000004B
:1021C000414C4C204F4E204F4B0D0A00414C4C20AF
:1021D0004F4646204F4B0D0A000000003D3D3D3D5F
:1021E0003D20436F6D6D616E6473203D3D3D3D3D0F
:1021F0000D0A00004C454431204F4E20202F204C2A
:10220000454431204F46460D0A0000004C454432FB
:10221000204F4E20202F204C454432204F46460D63
:102220000A0000004C454433204F4E20202F204C04
:10223000454433204F46460D0A000000414C4C20D7
:102240004F4E2020202F20414C4C204F46460D0A57
:10225000000000005354415455530D0A0000000083
:1022600048454C500D0A00004C4544313A25732036
:10227000204C4544323A257320204C4544333A25BE
:10228000730D0A0010B50446FEF7EDF8214682B240
:10229000BDE8104064230148FFF7DCBA18000020B5
:1022A0004FF04070E1EE100A70470006101600066D
:1022B00010160000000000000000010203040607E1
:1022C000080900000000010203040000EC220008DD
:1022D0000000002018000000E801000804230008A6
:1022E00018000020A80700000402000800000000F9
:1022F00000000000010000001000000000000000CD
:042300000024F400C1
:04000005080001AD41
:00000001FF
