:020000040800F2
:1000000010040020C501000829090008250900087E
:1000100027090008D1020008C509000800000000F7
:100020000000000000000000000000002D09000892
:10003000D3020008000000002B0900082F09000867
:10004000DF010008DF010008DF010008DF01000810
:10005000DF010008DF010008DF010008DF01000800
:10006000DF010008DF010008DF010008DF010008F0
:10007000DF010008DF010008DF010008DF010008E0
:10008000DF010008DF010008DF010008DF010008D0
:10009000DF010008DF010008DF010008DF010008C0
:1000A000DF010008DF010008DF010008DF010008B0
:1000B000DF010008DF010008DF010008DF010008A0
:1000C000DF010008DF010008DF010008DF01000890
:1000D000DF010008DF010008DF010008DF01000880
:1000E000DF010008DF010008DF010008DF01000870
:1000F000DF010008DF010008DF010008DF01000860
:10010000DF010008DF010008DF010008DF0100084F
:10011000DF010008DF010008DF010008DF0100083F
:10012000DF010008DF010008DF010008DF0100082F
:10013000DF010008DF010008DF010008DF0100081F
:10014000DF010008DF010008DF010008DF0100080F
:10015000DF010008DF010008DF010008DF010008FF
:10016000DF010008DF010008DF010008DF010008EF
:10017000DF010008DF010008DF01000800000000C7
:10018000DF010008DF010008DF010008DF010008CF
:10019000DF010008DF010008DF010008DF010008BF
:1001A000DF010008DF010008DF010008DFF810D0E0
:1001B00000F07CF800480047050A0008AFF3008013
:1001C000100400200648804706480047FEE7FEE787
:1001D000FEE7FEE7FEE7FEE7FEE7FEE7FEE7FEE7F7
:1001E000B5090008AD0100082DE9F05F05460020C3
:1001F00092469B4688460646814640241BE0284698
:1002000041464746224600F041F853465A46C01A36
:10021000914110D311461846224600F028F82D1AB5
:1002200067EB01084F4622460120002100F01FF82D
:1002300017EB00094E41201EA4F10104DFDC484603
:1002400031462A464346BDE8F09FD2B201E000F8AD
:10025000012B491EFBD270470022F6E710B513466A
:100260000A4604461946FFF7F0FF204610BD202A33
:1002700004DB203A00FA02F1002070479140C2F1FD
:10028000200320FA03F3194390407047202A04DB2F
:10029000203A21FA02F00021704721FA02F3D040FF
:1002A000C2F120029140084319467047064C074DA1
:1002B00006E0E06840F0010394E807009847103436
:1002C000AC42F6D3FFF776FF200A0008400A000888
:1002D000FEE770470148806870470000000000207A
:1002E0000248816802781144816070470000002054
:1002F0000B4810B5016841F400710160016841F4D8
:1003000080610160016841F480710160032000F0A8
:1003100061F80F2000F006F800F024F8002010BD6E
:10032000003C024070B50D4D04464FF47A712878B8
:10033000B1FBF0F00A490968B1FBF0F000F0DEFA19
:1003400048B9102C07D200222146501E00F022F896
:1003500000206C6070BD012070BD00000000002016
:100360000C0000200A4808B5016841F48041016092
:10037000006800F4804000900548001F016841F0CB
:1003800080510160006800F08050009008BD0000BE
:1003900044380240F0B40E4B1B680C46C3F30223F2
:1003A000C3F10705042D00D90425191D072901D221
:1003B000002300E0DB1E012606FA05F1491E21405C
:1003C00099409E40761E16403143F0BC00F0FBBAC7
:1003D0000CED00E0064900F0070208684FF6FF0345
:1003E000184040EA0220034A1043086070470000AA
:1003F0000CED00E00000FA052DE9F0470E4605007F
:1004000065D0DFF81481D8F80000F7B200F00F00D3
:10041000B04207D288F80070D8F8000000F00F0052
:10042000B04254D128683D4C810712D5400703D50E
:10043000206840F4E05020602878000703D5206849
:1004400040F4604020602068A96820F0F000084374
:1004500020602878C0072DD0304968680839012805
:1004600012D0022813D0032811D009688907002967
:100470002DDA216821F0030101432160FFF72AFFF3
:10048000814641F2883A0EE009688903EFE709687E
:100490008901ECE7FFF71EFFA0EB0901514502D9E6
:1004A0000320BDE8F0872068696800F00C00B0EB1D
:1004B000810FEFD1D8F80010404601F00F01B14292
:1004C00007D90770006800F00F00B04201D001208A
:1004D000E7E72878400705D52068E96820F4E05070
:1004E000084320602878000706D52068296920F491
:1004F000604040EAC100206000F018F82168084A16
:10050000C1F30311515CC840064908600648006801
:10051000FFF708FF0020C4E7003C02400838024013
:100520000E0A00080C00002004000020154810B539
:10053000006810F00C02144813D01449042A0FD09C
:10054000082A0ED10F4C241F2268236802F03F02B4
:100550005B0207D52068C0F38810A0FB010106E00C
:10056000084610BD2168C1F38811A1FB00010023DA
:10057000FFF73AFE2168C1F30141491C4900B0FB75
:10058000F1F010BD083802400024F40040787D01ED
:100590002DE9F84F04006ED02078DFF84C93C007A7
:1005A000A9F104054AD009F104000168C1F38101F1
:1005B000012908D00068C0F3810002280AD1D9F8C7
:1005C0000000400206D52868800337D560680028FF
:1005D000E1D033E06068B0F5803F10D0B0F5A02FD7
:1005E000286810D020F480302860286820F480200B
:1005F00028606068A8B1FFF76DFE06460DE0286828
:1006000040F48030F4E740F480202860F7E700BF32
:10061000FFF760FE801B642873D828688003F7D535
:100620000CE0FFF757FE064605E000BFFFF752FE5D
:10063000801B6428F0D828688003F7D42078DFF87E
:10064000AC8280074FF0000A3ED5A748001D016824
:1006500011F00C0F08D00068C0F3810002280BD104
:10066000D9F80000400207D42868800716D5E06852
:10067000012800D112E033E1E068B8B10120C8F8E8
:100680000000FFF727FE064605E000BFFFF722FE49
:10069000801B0228C0D828688007F7D52868216900
:1006A00020F0F80040EAC10028600DE0C8F800A082
:1006B000FFF710FE064604E0FFF70CFE801B022841
:1006C0001FD828688007F7D42078000722D5864FE6
:1006D00087486169703771B101210160FFF7FAFD48
:1006E000064604E0FFF7F6FD801B022809D83868AB
:1006F0008007F7D50EE0C0F800A0FFF7EBFD064637
:1007000005E082E0FFF7E6FD801B02287DD838680F
:100710008007F7D42078400768D5DFF8CCB10027F0
:100720000BF13C0BDBF80000C0000BD4DBF8001031
:1007300041F08051CBF80010DBF80000012700F0F9
:10074000805000906B4E3068C00510D4306840F483
:1007500080703060FFF7BEFD009005E0FFF7BAFD46
:100760000099401A022850D83068C005F6D55E4E70
:10077000A0686C3601280FD00528306810D020F012
:1007800001003060306820F004003060A068B8B12B
:10079000FFF7A0FD00900FE0306840F00100F4E7A3
:1007A00040F004003060F7E7FFF794FD0099411A2C
:1007B00041F28830814266D830688007F4D50EE077
:1007C000FFF788FD009007E0FFF784FD0099411ACC
:1007D00041F28830814256D830688007F4D42FB176
:1007E000DBF8001021F08051CBF80010A069C8B3ED
:1007F0003D49091D0968C1F3810102294AD0022837
:10080000504607D0C8F8600000E03CE0FFF762FD0A
:1008100004463BE04746C8F86000FFF75BFD06462C
:1008200005E000BFFFF756FD801B02282BD8286883
:100830008001F7D4D4E907010843A16A2E4A490888
:1008400002EB0141626A41EA8211084394F82C10DC
:1008500040EA0161C9F8001001203866FFF73AFD4F
:10086000044606E03EE000BFFFF734FD001B02280F
:1008700009D828688001F7D534E000BFFFF72AFDCA
:10088000001B022802D90320BDE8F88F28688001E8
:10089000F4D427E00128F7D0D9F80000E26900F489
:1008A000800191421CD1226A00F03F01914217D190
:1008B00047F6C071626A0140B1EB821F10D1A26A93
:1008C0004FF0FF3300F4403103EB5202B1EB024F23
:1008D00006D194F82C1000F07060B0EB016F01D0DD
:1008E0000120D1E70020CFE7043802400000474252
:1008F000800E4742007000400000FFFF10B5401E10
:10090000B0F1807F01D3012010BD4FF0E024606181
:100910000F21601700F057F80020A0610720206128
:10092000002010BDFEE7FEE7FEE770477047FFF7C7
:10093000D7BC000010B592B030216846FFF78CFCA0
:1009400014210CA8FFF788FC18480024016841F026
:1009500080510160006800F08050119014480168D7
:1009600021F4404141F4804101600068069400F4A4
:10097000404011900220009001200390102004902C
:100980006846FFF705FE08B172B6FEE70F20CDE915
:100990000C040E940F9400210CA81094FFF72CFD6A
:1009A000002801D072B6FEE712B010BD40380240F8
:1009B000007000400248016841F470010160704716
:1009C00088ED00E0FEE70907090E002804DB00F1CE
:1009D000E02080F80014704700F00F0000F1E020E4
:1009E00080F8141D704702E008C8121F08C1002AD1
:1009F000FAD170477047002001E001C1121F002AA0
:100A0000FBD17047FFF774FCFFF794FFFEE700008F
:100A100000000000000001020304060708090000AE
:100A2000400A00080000002010000000E60900084D
:100A3000500A00081000002000040000F609000819
:100A40000100000010000000000000000024F4007D
:04000005080001AD41
:00000001FF
